:020000040000FA
:1000000000000228D730FE008030FF0080308031B1
:10001000942080312000A1007F08A000D930A200E8
:100020008030A30020002008A4002108A500FF3094
:10003000A007031CA1032408250403197F2804300A
:100040002207A400A501A50D2308A5072408FE008A
:100050002508FF0080308031942080312000A700E7
:100060007F08A6002208FE002308FF0080308031B0
:10007000942080312000A900A5007F08A800A400DA
:1000800002302207A400A501A50D2308A507240816
:10009000FE002508FF008030803194208031200050
:1000A000A500AB007F08A400AA0020002608AA0033
:1000B0002708AB00FF30A607031CA7032A082B0460
:1000C000031979282808FE002908FF0080308031B4
:1000D000822080312000AA002408840025088500A1
:1000E0002A088000A80A0319A90AA40A0319A50A64
:1000F000552806302000A2070318A30A12288031D1
:10010000B1280800003A03198928803A03198F287A
:1001100000347E0884007F088500000808007F08FE
:100120008A007E0882000800003A03199C28803A61
:100130000319A428FF0100347E0884007F0885008D
:100140001200FF000008080080318F20FD00FE0F24
:10015000FF03FF0A80318F20FC007D08FF007C0830
:100160000800C52021008C160C1122008C1AB5281D
:1001700021000C1122000C110C110C1521000C1582
:1001800022008C1AB528C028080078302100990078
:1001900020008B018B138B12950123008C01210011
:1001A0009D019E019F0122009101920108000134EE
:1001B0000034DF3400342C34003401340034003493
:020000040001F9
:02000E00E439D3
:02001000FF3FB0
:00000001FF
